{
  "contractName": "DAO",
  "abi": [
    {
      "inputs": [
        {
          "internalType": "uint256",
          "name": "_contributionTimeEnd",
          "type": "uint256"
        },
        {
          "internalType": "uint256",
          "name": "_voteTime",
          "type": "uint256"
        },
        {
          "internalType": "uint256",
          "name": "_quorum",
          "type": "uint256"
        }
      ],
      "stateMutability": "nonpayable",
      "type": "constructor"
    },
    {
      "inputs": [],
      "name": "availableFunds",
      "outputs": [
        {
          "internalType": "uint256",
          "name": "",
          "type": "uint256"
        }
      ],
      "stateMutability": "view",
      "type": "function",
      "constant": true
    },
    {
      "inputs": [],
      "name": "contributionTimeEnd",
      "outputs": [
        {
          "internalType": "uint256",
          "name": "",
          "type": "uint256"
        }
      ],
      "stateMutability": "view",
      "type": "function",
      "constant": true
    },
    {
      "inputs": [
        {
          "internalType": "uint256",
          "name": "",
          "type": "uint256"
        }
      ],
      "name": "investorsList",
      "outputs": [
        {
          "internalType": "address",
          "name": "",
          "type": "address"
        }
      ],
      "stateMutability": "view",
      "type": "function",
      "constant": true
    },
    {
      "inputs": [
        {
          "internalType": "address",
          "name": "",
          "type": "address"
        },
        {
          "internalType": "uint256",
          "name": "",
          "type": "uint256"
        }
      ],
      "name": "isVoted",
      "outputs": [
        {
          "internalType": "bool",
          "name": "",
          "type": "bool"
        }
      ],
      "stateMutability": "view",
      "type": "function",
      "constant": true
    },
    {
      "inputs": [],
      "name": "manager",
      "outputs": [
        {
          "internalType": "address",
          "name": "",
          "type": "address"
        }
      ],
      "stateMutability": "view",
      "type": "function",
      "constant": true
    },
    {
      "inputs": [],
      "name": "nextProposalId",
      "outputs": [
        {
          "internalType": "uint256",
          "name": "",
          "type": "uint256"
        }
      ],
      "stateMutability": "view",
      "type": "function",
      "constant": true
    },
    {
      "inputs": [
        {
          "internalType": "address",
          "name": "",
          "type": "address"
        }
      ],
      "name": "numOfShares",
      "outputs": [
        {
          "internalType": "uint256",
          "name": "",
          "type": "uint256"
        }
      ],
      "stateMutability": "view",
      "type": "function",
      "constant": true
    },
    {
      "inputs": [
        {
          "internalType": "uint256",
          "name": "",
          "type": "uint256"
        }
      ],
      "name": "proposals",
      "outputs": [
        {
          "internalType": "uint256",
          "name": "id",
          "type": "uint256"
        },
        {
          "internalType": "string",
          "name": "description",
          "type": "string"
        },
        {
          "internalType": "uint256",
          "name": "amount",
          "type": "uint256"
        },
        {
          "internalType": "address payable",
          "name": "recipient",
          "type": "address"
        },
        {
          "internalType": "uint256",
          "name": "votes",
          "type": "uint256"
        },
        {
          "internalType": "uint256",
          "name": "end",
          "type": "uint256"
        },
        {
          "internalType": "bool",
          "name": "isExecuted",
          "type": "bool"
        },
        {
          "internalType": "bool",
          "name": "veto",
          "type": "bool"
        },
        {
          "internalType": "bool",
          "name": "canceled",
          "type": "bool"
        }
      ],
      "stateMutability": "view",
      "type": "function",
      "constant": true
    },
    {
      "inputs": [],
      "name": "quorum",
      "outputs": [
        {
          "internalType": "uint256",
          "name": "",
          "type": "uint256"
        }
      ],
      "stateMutability": "view",
      "type": "function",
      "constant": true
    },
    {
      "inputs": [],
      "name": "totalShares",
      "outputs": [
        {
          "internalType": "uint256",
          "name": "",
          "type": "uint256"
        }
      ],
      "stateMutability": "view",
      "type": "function",
      "constant": true
    },
    {
      "inputs": [],
      "name": "voteTime",
      "outputs": [
        {
          "internalType": "uint256",
          "name": "",
          "type": "uint256"
        }
      ],
      "stateMutability": "view",
      "type": "function",
      "constant": true
    },
    {
      "inputs": [],
      "name": "contribution",
      "outputs": [],
      "stateMutability": "payable",
      "type": "function",
      "payable": true
    },
    {
      "inputs": [
        {
          "internalType": "uint256",
          "name": "_amount",
          "type": "uint256"
        }
      ],
      "name": "reedemShare",
      "outputs": [],
      "stateMutability": "nonpayable",
      "type": "function"
    },
    {
      "inputs": [
        {
          "internalType": "uint256",
          "name": "_amount",
          "type": "uint256"
        },
        {
          "internalType": "address",
          "name": "_to",
          "type": "address"
        }
      ],
      "name": "transferShare",
      "outputs": [],
      "stateMutability": "nonpayable",
      "type": "function"
    },
    {
      "inputs": [
        {
          "internalType": "string",
          "name": "_description",
          "type": "string"
        },
        {
          "internalType": "uint256",
          "name": "_amount",
          "type": "uint256"
        },
        {
          "internalType": "address payable",
          "name": "_recepient",
          "type": "address"
        }
      ],
      "name": "createProposal",
      "outputs": [],
      "stateMutability": "nonpayable",
      "type": "function"
    },
    {
      "inputs": [
        {
          "internalType": "uint256",
          "name": "_proposalId",
          "type": "uint256"
        }
      ],
      "name": "voteProposal",
      "outputs": [],
      "stateMutability": "nonpayable",
      "type": "function"
    },
    {
      "inputs": [
        {
          "internalType": "uint256",
          "name": "_proposalId",
          "type": "uint256"
        }
      ],
      "name": "executeProposal",
      "outputs": [],
      "stateMutability": "nonpayable",
      "type": "function"
    },
    {
      "inputs": [],
      "name": "ProposalList",
      "outputs": [
        {
          "components": [
            {
              "internalType": "uint256",
              "name": "id",
              "type": "uint256"
            },
            {
              "internalType": "string",
              "name": "description",
              "type": "string"
            },
            {
              "internalType": "uint256",
              "name": "amount",
              "type": "uint256"
            },
            {
              "internalType": "address payable",
              "name": "recipient",
              "type": "address"
            },
            {
              "internalType": "uint256",
              "name": "votes",
              "type": "uint256"
            },
            {
              "internalType": "uint256",
              "name": "end",
              "type": "uint256"
            },
            {
              "internalType": "bool",
              "name": "isExecuted",
              "type": "bool"
            },
            {
              "internalType": "bool",
              "name": "veto",
              "type": "bool"
            },
            {
              "internalType": "bool",
              "name": "canceled",
              "type": "bool"
            }
          ],
          "internalType": "struct DAO.Proposal[]",
          "name": "",
          "type": "tuple[]"
        }
      ],
      "stateMutability": "view",
      "type": "function",
      "constant": true
    },
    {
      "inputs": [],
      "name": "InvestorList",
      "outputs": [
        {
          "internalType": "address[]",
          "name": "",
          "type": "address[]"
        }
      ],
      "stateMutability": "view",
      "type": "function",
      "constant": true
    },
    {
      "inputs": [
        {
          "internalType": "uint256",
          "name": "_proposalId",
          "type": "uint256"
        }
      ],
      "name": "Veto",
      "outputs": [],
      "stateMutability": "nonpayable",
      "type": "function"
    },
    {
      "inputs": [
        {
          "internalType": "uint256",
          "name": "_proposalId",
          "type": "uint256"
        }
      ],
      "name": "CancelProposal",
      "outputs": [],
      "stateMutability": "nonpayable",
      "type": "function"
    }
  ],
  "bytecode": "0x60806040523480156200001157600080fd5b5060405162002fe338038062002fe3833981810160405281019062000037919062000137565b60008111801562000049575060648111155b6200008b576040517f08c379a00000000000000000000000000000000000000000000000000000000081526004016200008290620001f4565b60405180910390fd5b824262000099919062000245565b6007819055508160098190555080600a8190555033600b60006101000a81548173ffffffffffffffffffffffffffffffffffffffff021916908373ffffffffffffffffffffffffffffffffffffffff160217905550505050620002a2565b600080fd5b6000819050919050565b6200011181620000fc565b81146200011d57600080fd5b50565b600081519050620001318162000106565b92915050565b600080600060608486031215620001535762000152620000f7565b5b6000620001638682870162000120565b9350506020620001768682870162000120565b9250506040620001898682870162000120565b9150509250925092565b600082825260208201905092915050565b7f4e6f742076616c69642076616c75657300000000000000000000000000000000600082015250565b6000620001dc60108362000193565b9150620001e982620001a4565b602082019050919050565b600060208201905081810360008301526200020f81620001cd565b9050919050565b7f4e487b7100000000000000000000000000000000000000000000000000000000600052601160045260246000fd5b60006200025282620000fc565b91506200025f83620000fc565b9250827fffffffffffffffffffffffffffffffffffffffffffffffffffffffffffffffff0382111562000297576200029662000216565b5b828201905092915050565b612d3180620002b26000396000f3fe60806040526004361061012a5760003560e01c806350520b1f116100ab5780638896f24c1161006f5780638896f24c146103c75780638ee36f05146103f0578063afc8275b1461042d578063bcf93dd614610458578063c1188cff14610483578063df18b7f4146104ac5761012a565b806350520b1f146103035780636a9078031461030d5780636ac1e01f1461034a5780636dfc109914610373578063807896d51461039e5761012a565b80632ab09d14116100f25780632ab09d141461021a5780632ccc8727146102455780633a98ef391461028257806346fcff4c146102ad578063481c6a75146102d85761012a565b8063013cf08b1461012f578063016bc65f14610174578063039383e61461019d5780630d61b519146101c65780631703a018146101ef575b600080fd5b34801561013b57600080fd5b5061015660048036038101906101519190611ca5565b6104d7565b60405161016b99989796959493929190611dd6565b60405180910390f35b34801561018057600080fd5b5061019b60048036038101906101969190611ca5565b6105f4565b005b3480156101a957600080fd5b506101c460048036038101906101bf9190611ea8565b610759565b005b3480156101d257600080fd5b506101ed60048036038101906101e89190611ca5565b610abc565b005b3480156101fb57600080fd5b50610204610cdd565b6040516102119190611ee8565b60405180910390f35b34801561022657600080fd5b5061022f610ce3565b60405161023c9190611ee8565b60405180910390f35b34801561025157600080fd5b5061026c60048036038101906102679190611ca5565b610ce9565b6040516102799190611f12565b60405180910390f35b34801561028e57600080fd5b50610297610d28565b6040516102a49190611ee8565b60405180910390f35b3480156102b957600080fd5b506102c2610d2e565b6040516102cf9190611ee8565b60405180910390f35b3480156102e457600080fd5b506102ed610d34565b6040516102fa9190611f12565b60405180910390f35b61030b610d5a565b005b34801561031957600080fd5b50610334600480360381019061032f9190611f2d565b610f26565b6040516103419190611ee8565b60405180910390f35b34801561035657600080fd5b50610371600480360381019061036c9190611feb565b610f3e565b005b34801561037f57600080fd5b50610388611159565b604051610395919061225d565b60405180910390f35b3480156103aa57600080fd5b506103c560048036038101906103c09190611ca5565b61137b565b005b3480156103d357600080fd5b506103ee60048036038101906103e99190611ca5565b611686565b005b3480156103fc57600080fd5b506104176004803603810190610412919061227f565b611794565b60405161042491906122bf565b60405180910390f35b34801561043957600080fd5b506104426117c3565b60405161044f9190611ee8565b60405180910390f35b34801561046457600080fd5b5061046d6117c9565b60405161047a9190611ee8565b60405180910390f35b34801561048f57600080fd5b506104aa60048036038101906104a59190611ca5565b6117cf565b005b3480156104b857600080fd5b506104c1611a81565b6040516104ce9190612398565b60405180910390f35b6004602052806000526040600020600091509050806000015490806001018054610500906123e9565b80601f016020809104026020016040519081016040528092919081815260200182805461052c906123e9565b80156105795780601f1061054e57610100808354040283529160200191610579565b820191906000526020600020905b81548152906001019060200180831161055c57829003601f168201915b5050505050908060020154908060030160009054906101000a900473ffffffffffffffffffffffffffffffffffffffff16908060040154908060050154908060060160009054906101000a900460ff16908060060160019054906101000a900460ff16908060060160029054906101000a900460ff16905089565b600115156000803373ffffffffffffffffffffffffffffffffffffffff1673ffffffffffffffffffffffffffffffffffffffff16815260200190815260200160002060009054906101000a900460ff16151514610686576040517f08c379a000000000000000000000000000000000000000000000000000000000815260040161067d90612467565b60405180910390fd5b60216005546064600160003373ffffffffffffffffffffffffffffffffffffffff1673ffffffffffffffffffffffffffffffffffffffff168152602001908152602001600020546106d791906124b6565b6106e1919061253f565b11610721576040517f08c379a0000000000000000000000000000000000000000000000000000000008152600401610718906125e2565b60405180910390fd5b600060046000838152602001908152602001600020905060018160060160016101000a81548160ff0219169083151502179055505050565b600115156000803373ffffffffffffffffffffffffffffffffffffffff1673ffffffffffffffffffffffffffffffffffffffff16815260200190815260200160002060009054906101000a900460ff161515146107eb576040517f08c379a00000000000000000000000000000000000000000000000000000000081526004016107e290612467565b60405180910390fd5b81600160003373ffffffffffffffffffffffffffffffffffffffff1673ffffffffffffffffffffffffffffffffffffffff16815260200190815260200160002054101561086d576040517f08c379a00000000000000000000000000000000000000000000000000000000081526004016108649061264e565b60405180910390fd5b8160065410156108b2576040517f08c379a00000000000000000000000000000000000000000000000000000000081526004016108a9906126ba565b60405180910390fd5b81600160003373ffffffffffffffffffffffffffffffffffffffff1673ffffffffffffffffffffffffffffffffffffffff168152602001908152602001600020600082825461090191906126da565b925050819055506000600160003373ffffffffffffffffffffffffffffffffffffffff1673ffffffffffffffffffffffffffffffffffffffff1681526020019081526020016000205414156109a85760008060003373ffffffffffffffffffffffffffffffffffffffff1673ffffffffffffffffffffffffffffffffffffffff16815260200190815260200160002060006101000a81548160ff0219169083151502179055505b81600160008373ffffffffffffffffffffffffffffffffffffffff1673ffffffffffffffffffffffffffffffffffffffff16815260200190815260200160002060008282546109f7919061270e565b9250508190555060016000808373ffffffffffffffffffffffffffffffffffffffff1673ffffffffffffffffffffffffffffffffffffffff16815260200190815260200160002060006101000a81548160ff0219169083151502179055506003819080600181540180825580915050600190039060005260206000200160009091909190916101000a81548173ffffffffffffffffffffffffffffffffffffffff021916908373ffffffffffffffffffffffffffffffffffffffff1602179055505050565b3373ffffffffffffffffffffffffffffffffffffffff16600b60009054906101000a900473ffffffffffffffffffffffffffffffffffffffff1673ffffffffffffffffffffffffffffffffffffffff1614610b4c576040517f08c379a0000000000000000000000000000000000000000000000000000000008152600401610b43906127b0565b60405180910390fd5b6000600460008381526020019081526020016000209050600a5460055460648360040154610b7a91906124b6565b610b84919061253f565b1015610bc5576040517f08c379a0000000000000000000000000000000000000000000000000000000008152600401610bbc9061281c565b60405180910390fd5b600015158160060160019054906101000a900460ff16151514610c1d576040517f08c379a0000000000000000000000000000000000000000000000000000000008152600401610c14906128ae565b60405180910390fd5b600015158160060160029054906101000a900460ff16151514610c75576040517f08c379a0000000000000000000000000000000000000000000000000000000008152600401610c6c9061291a565b60405180910390fd5b600115158160060160009054906101000a90505050806002015460066000828254610ca091906126da565b92505081905550610cd981600201548260030160009054906101000a900473ffffffffffffffffffffffffffffffffffffffff16611b0f565b5050565b600a5481565b60085481565b60038181548110610cf957600080fd5b906000526020600020016000915054906101000a900473ffffffffffffffffffffffffffffffffffffffff1681565b60055481565b60065481565b600b60009054906101000a900473ffffffffffffffffffffffffffffffffffffffff1681565b426007541015610d9f576040517f08c379a0000000000000000000000000000000000000000000000000000000008152600401610d9690612986565b60405180910390fd5b60003411610de2576040517f08c379a0000000000000000000000000000000000000000000000000000000008152600401610dd9906129f2565b60405180910390fd5b60016000803373ffffffffffffffffffffffffffffffffffffffff1673ffffffffffffffffffffffffffffffffffffffff16815260200190815260200160002060006101000a81548160ff02191690831515021790555034600160003373ffffffffffffffffffffffffffffffffffffffff1673ffffffffffffffffffffffffffffffffffffffff1681526020019081526020016000206000828254610e88919061270e565b925050819055503460056000828254610ea1919061270e565b925050819055506003339080600181540180825580915050600190039060005260206000200160009091909190916101000a81548173ffffffffffffffffffffffffffffffffffffffff021916908373ffffffffffffffffffffffffffffffffffffffff1602179055503460066000828254610f1d919061270e565b92505081905550565b60016020528060005260406000206000915090505481565b816006541015610f83576040517f08c379a0000000000000000000000000000000000000000000000000000000008152600401610f7a90612a5e565b60405180910390fd5b604051806101200160405280600854815260200185858080601f016020809104026020016040519081016040528093929190818152602001838380828437600081840152601f19601f8201169050808301925050505050505081526020018381526020018273ffffffffffffffffffffffffffffffffffffffff1681526020016000815260200160095442611018919061270e565b815260200160001515815260200160001515815260200160001515815250600460006008548152602001908152602001600020600082015181600001556020820151816001019080519060200190611071929190611b5a565b506040820151816002015560608201518160030160006101000a81548173ffffffffffffffffffffffffffffffffffffffff021916908373ffffffffffffffffffffffffffffffffffffffff1602179055506080820151816004015560a0820151816005015560c08201518160060160006101000a81548160ff02191690831515021790555060e08201518160060160016101000a81548160ff0219169083151502179055506101008201518160060160026101000a81548160ff0219169083151502179055509050506008600081548092919061114e90612a7e565b919050555050505050565b6060600060085467ffffffffffffffff81111561117957611178612ac7565b5b6040519080825280602002602001820160405280156111b257816020015b61119f611be0565b8152602001906001900390816111975790505b50905060005b600854811015611373576004600082815260200190815260200160002060405180610120016040529081600082015481526020016001820180546111fb906123e9565b80601f0160208091040260200160405190810160405280929190818152602001828054611227906123e9565b80156112745780601f1061124957610100808354040283529160200191611274565b820191906000526020600020905b81548152906001019060200180831161125757829003601f168201915b50505050508152602001600282015481526020016003820160009054906101000a900473ffffffffffffffffffffffffffffffffffffffff1673ffffffffffffffffffffffffffffffffffffffff1673ffffffffffffffffffffffffffffffffffffffff16815260200160048201548152602001600582015481526020016006820160009054906101000a900460ff161515151581526020016006820160019054906101000a900460ff161515151581526020016006820160029054906101000a900460ff16151515158152505082828151811061135557611354612af6565b5b6020026020010181905250808061136b90612a7e565b9150506111b8565b508091505090565b600115156000803373ffffffffffffffffffffffffffffffffffffffff1673ffffffffffffffffffffffffffffffffffffffff16815260200190815260200160002060009054906101000a900460ff1615151461140d576040517f08c379a000000000000000000000000000000000000000000000000000000000815260040161140490612467565b60405180910390fd5b600060046000838152602001908152602001600020905060001515600260003373ffffffffffffffffffffffffffffffffffffffff1673ffffffffffffffffffffffffffffffffffffffff168152602001908152602001600020600084815260200190815260200160002060009054906101000a900460ff161515146114c8576040517f08c379a00000000000000000000000000000000000000000000000000000000081526004016114bf90612b97565b60405180910390fd5b428160050154101561150f576040517f08c379a000000000000000000000000000000000000000000000000000000000815260040161150690612c03565b60405180910390fd5b600015158160060160009054906101000a900460ff16151514611567576040517f08c379a000000000000000000000000000000000000000000000000000000000815260040161155e90612c6f565b60405180910390fd5b600015158160060160029054906101000a900460ff161515146115bf576040517f08c379a00000000000000000000000000000000000000000000000000000000081526004016115b69061291a565b60405180910390fd5b6001600260003373ffffffffffffffffffffffffffffffffffffffff1673ffffffffffffffffffffffffffffffffffffffff168152602001908152602001600020600084815260200190815260200160002060006101000a81548160ff021916908315150217905550600160003373ffffffffffffffffffffffffffffffffffffffff1673ffffffffffffffffffffffffffffffffffffffff1681526020019081526020016000205481600401600082825461167b919061270e565b925050819055505050565b3373ffffffffffffffffffffffffffffffffffffffff16600b60009054906101000a900473ffffffffffffffffffffffffffffffffffffffff1673ffffffffffffffffffffffffffffffffffffffff1614611716576040517f08c379a000000000000000000000000000000000000000000000000000000000815260040161170d906127b0565b60405180910390fd5b600060046000838152602001908152602001600020905042816005015411611773576040517f08c379a000000000000000000000000000000000000000000000000000000000815260040161176a90612cdb565b60405180910390fd5b60018160060160026101000a81548160ff0219169083151502179055505050565b60026020528160005260406000206020528060005260406000206000915091509054906101000a900460ff1681565b60075481565b60095481565b600115156000803373ffffffffffffffffffffffffffffffffffffffff1673ffffffffffffffffffffffffffffffffffffffff16815260200190815260200160002060009054906101000a900460ff16151514611861576040517f08c379a000000000000000000000000000000000000000000000000000000000815260040161185890612467565b60405180910390fd5b80600160003373ffffffffffffffffffffffffffffffffffffffff1673ffffffffffffffffffffffffffffffffffffffff1681526020019081526020016000205410156118e3576040517f08c379a00000000000000000000000000000000000000000000000000000000081526004016118da9061264e565b60405180910390fd5b806006541015611928576040517f08c379a000000000000000000000000000000000000000000000000000000000815260040161191f906126ba565b60405180910390fd5b80600160003373ffffffffffffffffffffffffffffffffffffffff1673ffffffffffffffffffffffffffffffffffffffff168152602001908152602001600020600082825461197791906126da565b925050819055506000600160003373ffffffffffffffffffffffffffffffffffffffff1673ffffffffffffffffffffffffffffffffffffffff168152602001908152602001600020541415611a1e5760008060003373ffffffffffffffffffffffffffffffffffffffff1673ffffffffffffffffffffffffffffffffffffffff16815260200190815260200160002060006101000a81548160ff0219169083151502179055505b8060066000828254611a3091906126da565b925050819055503373ffffffffffffffffffffffffffffffffffffffff166108fc829081150290604051600060405180830381858888f19350505050158015611a7d573d6000803e3d6000fd5b5050565b60606003805480602002602001604051908101604052809291908181526020018280548015611b0557602002820191906000526020600020905b8160009054906101000a900473ffffffffffffffffffffffffffffffffffffffff1673ffffffffffffffffffffffffffffffffffffffff1681526020019060010190808311611abb575b5050505050905090565b8073ffffffffffffffffffffffffffffffffffffffff166108fc839081150290604051600060405180830381858888f19350505050158015611b55573d6000803e3d6000fd5b505050565b828054611b66906123e9565b90600052602060002090601f016020900481019282611b885760008555611bcf565b82601f10611ba157805160ff1916838001178555611bcf565b82800160010185558215611bcf579182015b82811115611bce578251825591602001919060010190611bb3565b5b509050611bdc9190611c48565b5090565b604051806101200160405280600081526020016060815260200160008152602001600073ffffffffffffffffffffffffffffffffffffffff16815260200160008152602001600081526020016000151581526020016000151581526020016000151581525090565b5b80821115611c61576000816000905550600101611c49565b5090565b600080fd5b600080fd5b6000819050919050565b611c8281611c6f565b8114611c8d57600080fd5b50565b600081359050611c9f81611c79565b92915050565b600060208284031215611cbb57611cba611c65565b5b6000611cc984828501611c90565b91505092915050565b611cdb81611c6f565b82525050565b600081519050919050565b600082825260208201905092915050565b60005b83811015611d1b578082015181840152602081019050611d00565b83811115611d2a576000848401525b50505050565b6000601f19601f8301169050919050565b6000611d4c82611ce1565b611d568185611cec565b9350611d66818560208601611cfd565b611d6f81611d30565b840191505092915050565b600073ffffffffffffffffffffffffffffffffffffffff82169050919050565b6000611da582611d7a565b9050919050565b611db581611d9a565b82525050565b60008115159050919050565b611dd081611dbb565b82525050565b600061012082019050611dec600083018c611cd2565b8181036020830152611dfe818b611d41565b9050611e0d604083018a611cd2565b611e1a6060830189611dac565b611e276080830188611cd2565b611e3460a0830187611cd2565b611e4160c0830186611dc7565b611e4e60e0830185611dc7565b611e5c610100830184611dc7565b9a9950505050505050505050565b6000611e7582611d7a565b9050919050565b611e8581611e6a565b8114611e9057600080fd5b50565b600081359050611ea281611e7c565b92915050565b60008060408385031215611ebf57611ebe611c65565b5b6000611ecd85828601611c90565b9250506020611ede85828601611e93565b9150509250929050565b6000602082019050611efd6000830184611cd2565b92915050565b611f0c81611e6a565b82525050565b6000602082019050611f276000830184611f03565b92915050565b600060208284031215611f4357611f42611c65565b5b6000611f5184828501611e93565b91505092915050565b600080fd5b600080fd5b600080fd5b60008083601f840112611f7f57611f7e611f5a565b5b8235905067ffffffffffffffff811115611f9c57611f9b611f5f565b5b602083019150836001820283011115611fb857611fb7611f64565b5b9250929050565b611fc881611d9a565b8114611fd357600080fd5b50565b600081359050611fe581611fbf565b92915050565b6000806000806060858703121561200557612004611c65565b5b600085013567ffffffffffffffff81111561202357612022611c6a565b5b61202f87828801611f69565b9450945050602061204287828801611c90565b925050604061205387828801611fd6565b91505092959194509250565b600081519050919050565b600082825260208201905092915050565b6000819050602082019050919050565b61209481611c6f565b82525050565b600082825260208201905092915050565b60006120b682611ce1565b6120c0818561209a565b93506120d0818560208601611cfd565b6120d981611d30565b840191505092915050565b6120ed81611d9a565b82525050565b6120fc81611dbb565b82525050565b60006101208301600083015161211b600086018261208b565b506020830151848203602086015261213382826120ab565b9150506040830151612148604086018261208b565b50606083015161215b60608601826120e4565b50608083015161216e608086018261208b565b5060a083015161218160a086018261208b565b5060c083015161219460c08601826120f3565b5060e08301516121a760e08601826120f3565b506101008301516121bc6101008601826120f3565b508091505092915050565b60006121d38383612102565b905092915050565b6000602082019050919050565b60006121f38261205f565b6121fd818561206a565b93508360208202850161220f8561207b565b8060005b8581101561224b578484038952815161222c85826121c7565b9450612237836121db565b925060208a01995050600181019050612213565b50829750879550505050505092915050565b6000602082019050818103600083015261227781846121e8565b905092915050565b6000806040838503121561229657612295611c65565b5b60006122a485828601611e93565b92505060206122b585828601611c90565b9150509250929050565b60006020820190506122d46000830184611dc7565b92915050565b600081519050919050565b600082825260208201905092915050565b6000819050602082019050919050565b61230f81611e6a565b82525050565b60006123218383612306565b60208301905092915050565b6000602082019050919050565b6000612345826122da565b61234f81856122e5565b935061235a836122f6565b8060005b8381101561238b5781516123728882612315565b975061237d8361232d565b92505060018101905061235e565b5085935050505092915050565b600060208201905081810360008301526123b2818461233a565b905092915050565b7f4e487b7100000000000000000000000000000000000000000000000000000000600052602260045260246000fd5b6000600282049050600182168061240157607f821691505b60208210811415612415576124146123ba565b5b50919050565b7f596f7520617265206e6f7420616e20696e766573746f72000000000000000000600082015250565b6000612451601783611cec565b915061245c8261241b565b602082019050919050565b6000602082019050818103600083015261248081612444565b9050919050565b7f4e487b7100000000000000000000000000000000000000000000000000000000600052601160045260246000fd5b60006124c182611c6f565b91506124cc83611c6f565b9250817fffffffffffffffffffffffffffffffffffffffffffffffffffffffffffffffff048311821515161561250557612504612487565b5b828202905092915050565b7f4e487b7100000000000000000000000000000000000000000000000000000000600052601260045260246000fd5b600061254a82611c6f565b915061255583611c6f565b92508261256557612564612510565b5b828204905092915050565b7f596f7520646f206e6f74206861766520746f20706f77657220746f206769766560008201527f207665746f000000000000000000000000000000000000000000000000000000602082015250565b60006125cc602583611cec565b91506125d782612570565b604082019050919050565b600060208201905081810360008301526125fb816125bf565b9050919050565b7f596f7520646f6e277420686176652074696873206d7563682073686172650000600082015250565b6000612638601e83611cec565b915061264382612602565b602082019050919050565b600060208201905081810360008301526126678161262b565b9050919050565b7f496e73756666696369656e742046756e64730000000000000000000000000000600082015250565b60006126a4601283611cec565b91506126af8261266e565b602082019050919050565b600060208201905081810360008301526126d381612697565b9050919050565b60006126e582611c6f565b91506126f083611c6f565b92508282101561270357612702612487565b5b828203905092915050565b600061271982611c6f565b915061272483611c6f565b9250827fffffffffffffffffffffffffffffffffffffffffffffffffffffffffffffffff0382111561275957612758612487565b5b828201905092915050565b7f596f7520617265206e6f74206d616e6167657200000000000000000000000000600082015250565b600061279a601383611cec565b91506127a582612764565b602082019050919050565b600060208201905081810360008301526127c98161278d565b9050919050565b7f4d616a6f7269747920646f6573206e6f7420737570706f727400000000000000600082015250565b6000612806601983611cec565b9150612811826127d0565b602082019050919050565b60006020820190508181036000830152612835816127f9565b9050919050565b7f5665746f20686173206265656e20676976656e20746f20746869732070726f7060008201527f6f73616c00000000000000000000000000000000000000000000000000000000602082015250565b6000612898602483611cec565b91506128a38261283c565b604082019050919050565b600060208201905081810360008301526128c78161288b565b9050919050565b7f5468652070726f706f73616c20686173206265656e2063616e63656c65640000600082015250565b6000612904601e83611cec565b915061290f826128ce565b602082019050919050565b60006020820190508181036000830152612933816128f7565b9050919050565b7f436f6e747269627574696f6e2074696d65206578706972656400000000000000600082015250565b6000612970601983611cec565b915061297b8261293a565b602082019050919050565b6000602082019050818103600083015261299f81612963565b9050919050565b7f43616e206e6f742073656e64207a65726f206574686572000000000000000000600082015250565b60006129dc601783611cec565b91506129e7826129a6565b602082019050919050565b60006020820190508181036000830152612a0b816129cf565b9050919050565b7f4e6f7420656e6f7567682066756e647300000000000000000000000000000000600082015250565b6000612a48601083611cec565b9150612a5382612a12565b602082019050919050565b60006020820190508181036000830152612a7781612a3b565b9050919050565b6000612a8982611c6f565b91507fffffffffffffffffffffffffffffffffffffffffffffffffffffffffffffffff821415612abc57612abb612487565b5b600182019050919050565b7f4e487b7100000000000000000000000000000000000000000000000000000000600052604160045260246000fd5b7f4e487b7100000000000000000000000000000000000000000000000000000000600052603260045260246000fd5b7f596f75206861766520616c726561647920766f74656420666f7220746869732060008201527f70726f706f73616c000000000000000000000000000000000000000000000000602082015250565b6000612b81602883611cec565b9150612b8c82612b25565b604082019050919050565b60006020820190508181036000830152612bb081612b74565b9050919050565b7f566f74696e672054696d6520456e646564000000000000000000000000000000600082015250565b6000612bed601183611cec565b9150612bf882612bb7565b602082019050919050565b60006020820190508181036000830152612c1c81612be0565b9050919050565b7f497420697320616c726561647920457865637574656400000000000000000000600082015250565b6000612c59601683611cec565b9150612c6482612c23565b602082019050919050565b60006020820190508181036000830152612c8881612c4c565b9050919050565b7f43616e63616c6174696f6e2074696d6520686173206578706972656400000000600082015250565b6000612cc5601c83611cec565b9150612cd082612c8f565b602082019050919050565b60006020820190508181036000830152612cf481612cb8565b905091905056fea2646970667358221220d6d718692bf1d0dc35065317f78ee049ba4b89aa46969b37a468ba254b94898f64736f6c634300080b0033",
  "immutableReferences": {},
  "source": "\n// SPDX-License-Identifier: GPL-3.0\n\npragma solidity >=0.7.0 <0.9.0;\n\n\ncontract DAO{\n    struct Proposal{\n        uint id;\n        string description;\n        uint amount; \n        address payable recipient;\n        uint votes;\n        uint end;\n        bool isExecuted;\n        bool veto;//more than 33% percentage of token holders can veto a proposal, even if it meets the quorum requirements.\n        bool canceled;//for cancelation before reach the voting deadline, especially if they are no longer relevant or necessary.\n    }\n\n    mapping(address=>bool) private isInvestor;\n    mapping(address=>uint) public numOfShares;\n    mapping(address=>mapping(uint=>bool)) public isVoted;\n    //mapping(address=>mapping(address=>bool)) public withdrawlStatus;\n    address[] public investorsList;\n    mapping(uint=>Proposal) public proposals;\n\n    uint public totalShares;\n    uint public availableFunds;\n    uint public contributionTimeEnd;\n    uint public nextProposalId;\n    uint public voteTime;\n//quorum= minimum number of votes required to pass a proposal\n    uint public quorum;\n    address public manager;\n\n//vote time need to give in secods during deploy. e.g. 1hr=36000\n    constructor(uint _contributionTimeEnd, uint _voteTime, uint _quorum){\n        require(_quorum>0 && _quorum<=100,\"Not valid values\");\n        contributionTimeEnd = block.timestamp+_contributionTimeEnd;\n        voteTime = _voteTime;\n        quorum = _quorum;\n        manager = msg.sender;\n    }\n\n    modifier onlyInvestor(){\n        require(isInvestor[msg.sender]==true,\"You are not an investor\");\n        _;\n    }\n\n    modifier onlyManager(){\n        require(manager==msg.sender,\"You are not manager\");\n        _;\n    }\n\n    function contribution() external payable{\n        require(contributionTimeEnd>=block.timestamp,\"Contribution time expired\");\n        require(msg.value>0,\"Can not send zero ether\");\n        isInvestor[msg.sender]=true;\n        numOfShares[msg.sender]+= msg.value;\n        totalShares+=msg.value;\n        investorsList.push(msg.sender);\n        availableFunds+=msg.value;\n    }\n\n    function reedemShare(uint _amount) public onlyInvestor(){\n        require(numOfShares[msg.sender]>=_amount,\"You don't have tihs much share\");\n        require(availableFunds>=_amount,\"Insufficient Funds\");\n\n        numOfShares[msg.sender]-=_amount;\n        if(numOfShares[msg.sender]==0){\n            isInvestor[msg.sender]=false;\n        }\n        availableFunds-=_amount;\n        payable(msg.sender).transfer(_amount);\n    }\n\n    function transferShare(uint _amount, address _to) public onlyInvestor(){\n        require(numOfShares[msg.sender]>=_amount,\"You don't have tihs much share\");\n        require(availableFunds>=_amount,\"Insufficient Funds\");\n\n        numOfShares[msg.sender]-=_amount;\n        if(numOfShares[msg.sender]==0){\n            isInvestor[msg.sender]= false;\n        }\n        numOfShares[_to]+=_amount;\n        isInvestor[_to] = true;\n        investorsList.push(_to);\n    }\n\n    function createProposal(string calldata _description, uint _amount, address payable _recepient) public {\n        require(availableFunds>=_amount,\"Not enough funds\");\n\n        proposals[nextProposalId] = Proposal(nextProposalId,\n            _description,\n            _amount,\n            _recepient, \n            0, \n            block.timestamp+voteTime, \n            false, \n            false, \n            false\n        );\n\n        nextProposalId++;\n    }\n\n    function voteProposal(uint _proposalId) public onlyInvestor(){\n        Proposal storage proposal = proposals[_proposalId];//pointing to the proposal wit the id that is provided in the arguments\n        require(isVoted[msg.sender][_proposalId]==false,\"You have already voted for this proposal\");\n        //now checking the conditions with the help of the pointer\n        require(proposal.end>=block.timestamp,\"Voting Time Ended\");\n        require(proposal.isExecuted==false,\"It is already Executed\");\n        require(proposal.canceled == false,\"The proposal has been canceled\");\n\n        isVoted[msg.sender][_proposalId]= true;\n        proposal.votes+=numOfShares[msg.sender];\n    }\n\n    function executeProposal(uint _proposalId) public onlyManager(){\n        Proposal storage proposal = proposals[_proposalId];\n        require(((proposal.votes*100)/totalShares)>=quorum,\"Majority does not support\");\n        require(proposal.veto==false,\"Veto has been given to this proposal\");\n        require(proposal.canceled == false,\"The proposal has been canceled\");\n        proposal.isExecuted==true;\n        availableFunds -=proposal.amount;\n        _transfer(proposal.amount,proposal.recipient);\n    }\n\n    function _transfer(uint _amount, address payable _recepient) private{\n        _recepient.transfer(_amount);\n    }\n\n    function ProposalList() public view returns(Proposal[] memory){\n        Proposal[] memory arr = new Proposal[](nextProposalId);\n        for(uint i=0; i<nextProposalId; i++){\n            arr[i]=proposals[i];\n        }\n        return arr;\n    }\n\n    function InvestorList() public view returns(address[] memory){\n        return investorsList;\n    }\n\n    function Veto(uint _proposalId) external onlyInvestor(){\n        require((numOfShares[msg.sender]*100/totalShares)>33,\"You do not have to power to give veto\");\n        Proposal storage proposal= proposals[_proposalId];\n        proposal.veto = true;\n    }\n\n    function CancelProposal(uint _proposalId) external onlyManager(){\n        Proposal storage proposal= proposals[_proposalId];\n        require((proposal.end>block.timestamp),\"Cancalation time has expired\");\n        proposal.canceled = true;\n    }\n\n}\n\n//  > contract address:    0xC90882B6FaE8b2599d0F8cd0608BeDD500C4fd12\n//  > account:             0xeCbc9da4d09A4a5059e6f119444e0CF04288F9ad",
  "sourcePath": "/Users/shekhshihabuddin/Desktop/Course/DAO/untitled_folder/contracts/dao.sol",
  "compiler": {
    "name": "solc",
    "version": "0.8.11+commit.d7f03943.Emscripten.clang"
  },
  "schemaVersion": "3.4.16",
  "updatedAt": "2023-11-05T06:33:05.197Z",
  "networkType": "ethereum",
  "devdoc": {
    "kind": "dev",
    "methods": {},
    "version": 1
  },
  "userdoc": {
    "kind": "user",
    "methods": {},
    "version": 1
  }
}